{
  "contractName": "FestakingTest",
  "abi": [
    {
      "constant": true,
      "inputs": [],
      "name": "name",
      "outputs": [
        {
          "name": "",
          "type": "string"
        }
      ],
      "payable": false,
      "stateMutability": "view",
      "type": "function"
    },
    {
      "constant": true,
      "inputs": [],
      "name": "ERC20Interface",
      "outputs": [
        {
          "name": "",
          "type": "address"
        }
      ],
      "payable": false,
      "stateMutability": "view",
      "type": "function"
    },
    {
      "constant": true,
      "inputs": [],
      "name": "withdrawStarts",
      "outputs": [
        {
          "name": "",
          "type": "uint256"
        }
      ],
      "payable": false,
      "stateMutability": "view",
      "type": "function"
    },
    {
      "constant": true,
      "inputs": [],
      "name": "SEC",
      "outputs": [
        {
          "name": "",
          "type": "uint256"
        }
      ],
      "payable": false,
      "stateMutability": "view",
      "type": "function"
    },
    {
      "constant": false,
      "inputs": [
        {
          "name": "amount",
          "type": "uint256"
        }
      ],
      "name": "withdraw",
      "outputs": [
        {
          "name": "",
          "type": "bool"
        }
      ],
      "payable": false,
      "stateMutability": "nonpayable",
      "type": "function"
    },
    {
      "constant": true,
      "inputs": [],
      "name": "earlyWithdrawReward",
      "outputs": [
        {
          "name": "",
          "type": "uint256"
        }
      ],
      "payable": false,
      "stateMutability": "view",
      "type": "function"
    },
    {
      "constant": true,
      "inputs": [
        {
          "name": "account",
          "type": "address"
        }
      ],
      "name": "stakeOf",
      "outputs": [
        {
          "name": "",
          "type": "uint256"
        }
      ],
      "payable": false,
      "stateMutability": "view",
      "type": "function"
    },
    {
      "constant": true,
      "inputs": [],
      "name": "stakingCap",
      "outputs": [
        {
          "name": "",
          "type": "uint256"
        }
      ],
      "payable": false,
      "stateMutability": "view",
      "type": "function"
    },
    {
      "constant": true,
      "inputs": [],
      "name": "stakedBalance",
      "outputs": [
        {
          "name": "",
          "type": "uint256"
        }
      ],
      "payable": false,
      "stateMutability": "view",
      "type": "function"
    },
    {
      "constant": true,
      "inputs": [],
      "name": "stakingStarts",
      "outputs": [
        {
          "name": "",
          "type": "uint256"
        }
      ],
      "payable": false,
      "stateMutability": "view",
      "type": "function"
    },
    {
      "constant": true,
      "inputs": [],
      "name": "totalReward",
      "outputs": [
        {
          "name": "",
          "type": "uint256"
        }
      ],
      "payable": false,
      "stateMutability": "view",
      "type": "function"
    },
    {
      "constant": false,
      "inputs": [
        {
          "name": "rewardAmount",
          "type": "uint256"
        },
        {
          "name": "withdrawableAmount",
          "type": "uint256"
        }
      ],
      "name": "addReward",
      "outputs": [
        {
          "name": "",
          "type": "bool"
        }
      ],
      "payable": false,
      "stateMutability": "nonpayable",
      "type": "function"
    },
    {
      "constant": false,
      "inputs": [
        {
          "name": "token",
          "type": "address"
        }
      ],
      "name": "registerTokenForTest",
      "outputs": [
        {
          "name": "",
          "type": "bool"
        }
      ],
      "payable": false,
      "stateMutability": "nonpayable",
      "type": "function"
    },
    {
      "constant": true,
      "inputs": [],
      "name": "tokenAddress",
      "outputs": [
        {
          "name": "",
          "type": "address"
        }
      ],
      "payable": false,
      "stateMutability": "view",
      "type": "function"
    },
    {
      "constant": false,
      "inputs": [
        {
          "name": "amount",
          "type": "uint256"
        }
      ],
      "name": "stake",
      "outputs": [
        {
          "name": "",
          "type": "bool"
        }
      ],
      "payable": false,
      "stateMutability": "nonpayable",
      "type": "function"
    },
    {
      "constant": true,
      "inputs": [],
      "name": "rewardBalance",
      "outputs": [
        {
          "name": "",
          "type": "uint256"
        }
      ],
      "payable": false,
      "stateMutability": "view",
      "type": "function"
    },
    {
      "constant": true,
      "inputs": [],
      "name": "GAP",
      "outputs": [
        {
          "name": "",
          "type": "uint256"
        }
      ],
      "payable": false,
      "stateMutability": "view",
      "type": "function"
    },
    {
      "constant": true,
      "inputs": [],
      "name": "stakingEnds",
      "outputs": [
        {
          "name": "",
          "type": "uint256"
        }
      ],
      "payable": false,
      "stateMutability": "view",
      "type": "function"
    },
    {
      "constant": true,
      "inputs": [],
      "name": "stakedTotal",
      "outputs": [
        {
          "name": "",
          "type": "uint256"
        }
      ],
      "payable": false,
      "stateMutability": "view",
      "type": "function"
    },
    {
      "constant": true,
      "inputs": [],
      "name": "withdrawEnds",
      "outputs": [
        {
          "name": "",
          "type": "uint256"
        }
      ],
      "payable": false,
      "stateMutability": "view",
      "type": "function"
    },
    {
      "inputs": [
        {
          "name": "name_",
          "type": "string"
        },
        {
          "name": "tokenAddress_",
          "type": "address"
        },
        {
          "name": "stakingCap_",
          "type": "uint256"
        }
      ],
      "payable": false,
      "stateMutability": "nonpayable",
      "type": "constructor"
    },
    {
      "anonymous": false,
      "inputs": [
        {
          "indexed": true,
          "name": "token",
          "type": "address"
        },
        {
          "indexed": true,
          "name": "staker_",
          "type": "address"
        },
        {
          "indexed": false,
          "name": "requestedAmount_",
          "type": "uint256"
        },
        {
          "indexed": false,
          "name": "stakedAmount_",
          "type": "uint256"
        }
      ],
      "name": "Staked",
      "type": "event"
    },
    {
      "anonymous": false,
      "inputs": [
        {
          "indexed": true,
          "name": "token",
          "type": "address"
        },
        {
          "indexed": true,
          "name": "staker_",
          "type": "address"
        },
        {
          "indexed": false,
          "name": "amount_",
          "type": "uint256"
        },
        {
          "indexed": false,
          "name": "reward_",
          "type": "uint256"
        }
      ],
      "name": "PaidOut",
      "type": "event"
    },
    {
      "anonymous": false,
      "inputs": [
        {
          "indexed": true,
          "name": "token",
          "type": "address"
        },
        {
          "indexed": true,
          "name": "staker_",
          "type": "address"
        },
        {
          "indexed": false,
          "name": "amount_",
          "type": "uint256"
        }
      ],
      "name": "Refunded",
      "type": "event"
    },
    {
      "constant": false,
      "inputs": [],
      "name": "setStakingPeriod",
      "outputs": [],
      "payable": false,
      "stateMutability": "nonpayable",
      "type": "function"
    },
    {
      "constant": false,
      "inputs": [
        {
          "name": "offset",
          "type": "uint256"
        }
      ],
      "name": "setEarlyWithdrawalPeriod",
      "outputs": [],
      "payable": false,
      "stateMutability": "nonpayable",
      "type": "function"
    },
    {
      "constant": false,
      "inputs": [],
      "name": "setAfterWithdrawal",
      "outputs": [],
      "payable": false,
      "stateMutability": "nonpayable",
      "type": "function"
    }
  ],
  "bytecode": "0x608060405261ea60600e556103e8600f553480156200001d57600080fd5b506040516200240238038062002402833981018060405260608110156200004357600080fd5b8101908080516401000000008111156200005c57600080fd5b828101905060208101848111156200007357600080fd5b81518560018202830111640100000000821117156200009157600080fd5b50509291906020018051906020019092919080519060200190929190505050828242600e544201600e5442016002600e54024201868660019080519060200190620000de929190620003d9565b50600073ffffffffffffffffffffffffffffffffffffffff168673ffffffffffffffffffffffffffffffffffffffff16141562000183576040517f08c379a00000000000000000000000000000000000000000000000000000000081526004018080602001828103825260148152602001807f46657374616b696e673a2030206164647265737300000000000000000000000081525060200191505060405180910390fd5b85600260006101000a81548173ffffffffffffffffffffffffffffffffffffffff021916908373ffffffffffffffffffffffffffffffffffffffff160217905550600085116200021f576040517f08c379a0000000000000000000000000000000000000000000000000000000008152600401808060200182810382526022815260200180620023e06022913960400191505060405180910390fd5b428510156200023557426003819055506200023d565b846003819055505b600354841162000299576040517f08c379a00000000000000000000000000000000000000000000000000000000081526004018080602001828103825260338152602001806200231e6033913960400191505060405180910390fd5b83600481905550600454831015620002fd576040517f08c379a0000000000000000000000000000000000000000000000000000000008152600401808060200182810382526034815260200180620023ac6034913960400191505060405180910390fd5b82600581905550600554821162000360576040517f08c379a0000000000000000000000000000000000000000000000000000000008152600401808060200182810382526035815260200180620023516035913960400191505060405180910390fd5b8160068190555060008111620003c2576040517f08c379a0000000000000000000000000000000000000000000000000000000008152600401808060200182810382526026815260200180620023866026913960400191505060405180910390fd5b806008819055505050505050505050505062000488565b828054600181600116156101000203166002900490600052602060002090601f016020900481019282601f106200041c57805160ff19168380011785556200044d565b828001600101855582156200044d579182015b828111156200044c5782518255916020019190600101906200042f565b5b5090506200045c919062000460565b5090565b6200048591905b808211156200048157600081600090555060010162000467565b5090565b90565b611e8680620004986000396000f3fe608060405234801561001057600080fd5b506004361061014d5760003560e01c806375c93bb9116100c3578063a694fc3a1161007c578063a694fc3a146104c7578063aa5c3ab41461050d578063b2ca38fe1461052b578063b410e2a114610549578063d66692a714610567578063eacebf61146105855761014d565b806375c93bb91461038f5780637617aeb0146103df57806390783d4a1461043b5780639cc3c0d4146104455780639d76ea5814610473578063a4413717146104bd5761014d565b80633f7fd60a116101155780633f7fd60a146102a157806342623360146102bf57806344c370d3146103175780635b9f0016146103355780636d68c7d414610353578063750142e6146103715761014d565b806306fdde03146101525780631bbc4b83146101d557806321b13cdf1461021f5780632d5bd0fc1461023d5780632e1a7d4d1461025b575b600080fd5b61015a6105a3565b6040518080602001828103825283818151815260200191508051906020019080838360005b8381101561019a57808201518184015260208101905061017f565b50505050905090810190601f1680156101c75780820380516001836020036101000a031916815260200191505b509250505060405180910390f35b6101dd610641565b604051808273ffffffffffffffffffffffffffffffffffffffff1673ffffffffffffffffffffffffffffffffffffffff16815260200191505060405180910390f35b610227610667565b6040518082815260200191505060405180910390f35b61024561066d565b6040518082815260200191505060405180910390f35b6102876004803603602081101561027157600080fd5b8101908080359060200190929190505050610673565b604051808215151515815260200191505060405180910390f35b6102a96108d8565b6040518082815260200191505060405180910390f35b610301600480360360208110156102d557600080fd5b81019080803573ffffffffffffffffffffffffffffffffffffffff1690602001909291905050506108de565b6040518082815260200191505060405180910390f35b61031f610926565b6040518082815260200191505060405180910390f35b61033d61092c565b6040518082815260200191505060405180910390f35b61035b610932565b6040518082815260200191505060405180910390f35b610379610938565b6040518082815260200191505060405180910390f35b6103c5600480360360408110156103a557600080fd5b81019080803590602001909291908035906020019092919050505061093e565b604051808215151515815260200191505060405180910390f35b610421600480360360208110156103f557600080fd5b81019080803573ffffffffffffffffffffffffffffffffffffffff169060200190929190505050610b10565b604051808215151515815260200191505060405180910390f35b610443610b5c565b005b6104716004803603602081101561045b57600080fd5b8101908080359060200190929190505050610b6b565b005b61047b610b7d565b604051808273ffffffffffffffffffffffffffffffffffffffff1673ffffffffffffffffffffffffffffffffffffffff16815260200191505060405180910390f35b6104c5610ba3565b005b6104f3600480360360208110156104dd57600080fd5b8101908080359060200190929190505050610bb9565b604051808215151515815260200191505060405180910390f35b610515610cf0565b6040518082815260200191505060405180910390f35b610533610cf6565b6040518082815260200191505060405180910390f35b610551610cfc565b6040518082815260200191505060405180910390f35b61056f610d02565b6040518082815260200191505060405180910390f35b61058d610d08565b6040518082815260200191505060405180910390f35b60018054600181600116156101000203166002900480601f0160208091040260200160405190810160405280929190818152602001828054600181600116156101000203166002900480156106395780601f1061060e57610100808354040283529160200191610639565b820191906000526020600020905b81548152906001019060200180831161061c57829003601f168201915b505050505081565b600d60009054906101000a900473ffffffffffffffffffffffffffffffffffffffff1681565b60055481565b600f5481565b6000600554804210156106d1576040517f08c379a0000000000000000000000000000000000000000000000000000000008152600401808060200182810382526027815260200180611d9d6027913960400191505060405180910390fd5b826000811015610749576040517f08c379a000000000000000000000000000000000000000000000000000000000815260040180806020018281038252601a8152602001807f46657374616b696e673a206e6567617469766520616d6f756e7400000000000081525060200191505060405180910390fd5b33600073ffffffffffffffffffffffffffffffffffffffff168173ffffffffffffffffffffffffffffffffffffffff1614156107ed576040517f08c379a00000000000000000000000000000000000000000000000000000000081526004018080602001828103825260178152602001807f46657374616b696e673a207a65726f206164647265737300000000000000000081525060200191505060405180910390fd5b60003390506000808273ffffffffffffffffffffffffffffffffffffffff1673ffffffffffffffffffffffffffffffffffffffff168152602001908152602001600020548611156108a6576040517f08c379a000000000000000000000000000000000000000000000000000000000815260040180806020018281038252601d8152602001807f46657374616b696e673a206e6f7420656e6f7567682062616c616e636500000081525060200191505060405180910390fd5b6006544210156108c2576108ba8187610d0e565b9450506108d0565b6108cc8187610fc1565b9450505b505050919050565b600a5481565b60008060008373ffffffffffffffffffffffffffffffffffffffff1673ffffffffffffffffffffffffffffffffffffffff168152602001908152602001600020549050919050565b60085481565b600c5481565b60035481565b60095481565b600060055480421061099b576040517f08c379a0000000000000000000000000000000000000000000000000000000008152600401808060200182810382526027815260200180611e346027913960400191505060405180910390fd5b600084116109f4576040517f08c379a0000000000000000000000000000000000000000000000000000000008152600401808060200182810382526022815260200180611e126022913960400191505060405180910390fd5b6000831015610a4e576040517f08c379a0000000000000000000000000000000000000000000000000000000008152600401808060200182810382526031815260200180611d4b6031913960400191505060405180910390fd5b83831115610aa7576040517f08c379a000000000000000000000000000000000000000000000000000000000815260040180806020018281038252604e815260200180611dc4604e913960600191505060405180910390fd5b6000339050610ab681866111ea565b610ac4576000925050610b09565b610ad98560095461120090919063ffffffff16565b600981905550600954600b81905550610afd84600a5461120090919063ffffffff16565b600a8190555060019250505b5092915050565b600081600260006101000a81548173ffffffffffffffffffffffffffffffffffffffff021916908373ffffffffffffffffffffffffffffffffffffffff16021790555060019050919050565b610b69600f544203611288565b565b610b7a81600e54420303611288565b50565b600260009054906101000a900473ffffffffffffffffffffffffffffffffffffffff1681565b610bb7600f546002600e5402420303611288565b565b6000816000811015610c33576040517f08c379a000000000000000000000000000000000000000000000000000000000815260040180806020018281038252601a8152602001807f46657374616b696e673a206e6567617469766520616d6f756e7400000000000081525060200191505060405180910390fd5b33600073ffffffffffffffffffffffffffffffffffffffff168173ffffffffffffffffffffffffffffffffffffffff161415610cd7576040517f08c379a00000000000000000000000000000000000000000000000000000000081526004018080602001828103825260178152602001807f46657374616b696e673a207a65726f206164647265737300000000000000000081525060200191505060405180910390fd5b6000339050610ce681866112b6565b9350505050919050565b600b5481565b600e5481565b60045481565b60075481565b60065481565b600082600073ffffffffffffffffffffffffffffffffffffffff168173ffffffffffffffffffffffffffffffffffffffff161415610db4576040517f08c379a00000000000000000000000000000000000000000000000000000000081526004018080602001828103825260178152602001807f46657374616b696e673a207a65726f206164647265737300000000000000000081525060200191505060405180910390fd5b6000610de1600754610dd36004546006546116ce90919063ffffffff16565b61175790919063ffffffff16565b90506000610e3282610e2487610e16600a54610e08600454426116ce90919063ffffffff16565b61175790919063ffffffff16565b61175790919063ffffffff16565b6117dd90919063ffffffff16565b90506000610e49828761120090919063ffffffff16565b9050610e6082600b546116ce90919063ffffffff16565b600b81905550610e7b86600c546116ce90919063ffffffff16565b600c81905550610ed2866000808a73ffffffffffffffffffffffffffffffffffffffff1673ffffffffffffffffffffffffffffffffffffffff168152602001908152602001600020546116ce90919063ffffffff16565b6000808973ffffffffffffffffffffffffffffffffffffffff1673ffffffffffffffffffffffffffffffffffffffff16815260200190815260200160002081905550610f1e878261186c565b15610fb3578673ffffffffffffffffffffffffffffffffffffffff16600260009054906101000a900473ffffffffffffffffffffffffffffffffffffffff1673ffffffffffffffffffffffffffffffffffffffff167f85ab59351da11b79336de7647172267c33bf533ee87d9d292441c2672177159b8885604051808381526020018281526020019250505060405180910390a35b600194505050505092915050565b600082600073ffffffffffffffffffffffffffffffffffffffff168173ffffffffffffffffffffffffffffffffffffffff161415611067576040517f08c379a00000000000000000000000000000000000000000000000000000000081526004018080602001828103825260178152602001807f46657374616b696e673a207a65726f206164647265737300000000000000000081525060200191505060405180910390fd5b6000611092600c5461108486600b5461175790919063ffffffff16565b6117dd90919063ffffffff16565b905060006110a9828661120090919063ffffffff16565b90506110fc856000808973ffffffffffffffffffffffffffffffffffffffff1673ffffffffffffffffffffffffffffffffffffffff168152602001908152602001600020546116ce90919063ffffffff16565b6000808873ffffffffffffffffffffffffffffffffffffffff1673ffffffffffffffffffffffffffffffffffffffff16815260200190815260200160002081905550611148868261186c565b156111dd578573ffffffffffffffffffffffffffffffffffffffff16600260009054906101000a900473ffffffffffffffffffffffffffffffffffffffff1673ffffffffffffffffffffffffffffffffffffffff167f85ab59351da11b79336de7647172267c33bf533ee87d9d292441c2672177159b8785604051808381526020018281526020019250505060405180910390a35b6001935050505092915050565b60006111f883303085611a36565b905092915050565b60008082840190508381101561127e576040517f08c379a000000000000000000000000000000000000000000000000000000000815260040180806020018281038252601b8152602001807f536166654d6174683a206164646974696f6e206f766572666c6f77000000000081525060200191505060405180910390fd5b8091505092915050565b80600381905550600e548101600481905550600e5481016005819055506002600e5402810160068190555050565b600060035480421015611314576040517f08c379a0000000000000000000000000000000000000000000000000000000008152600401808060200182810382526027815260200180611d9d6027913960400191505060405180910390fd5b60045480421061136f576040517f08c379a0000000000000000000000000000000000000000000000000000000008152600401808060200182810382526027815260200180611e346027913960400191505060405180910390fd5b8360008110156113e7576040517f08c379a000000000000000000000000000000000000000000000000000000000815260040180806020018281038252601a8152602001807f46657374616b696e673a206e6567617469766520616d6f756e7400000000000081525060200191505060405180910390fd5b6000859050611403600c546008546116ce90919063ffffffff16565b81111561142457611421600c546008546116ce90919063ffffffff16565b90505b6000811161149a576040517f08c379a00000000000000000000000000000000000000000000000000000000081526004018080602001828103825260158152602001807f5374616b696e67206361702069732066696c6c6564000000000000000000000081525060200191505060405180910390fd5b6114a487826111ea565b6114b25760009450506116c5565b8673ffffffffffffffffffffffffffffffffffffffff16600260009054906101000a900473ffffffffffffffffffffffffffffffffffffffff1673ffffffffffffffffffffffffffffffffffffffff167f6c86f3fd5118b3aa8bb4f389a617046de0a3d3d477de1a1673d227f802f616dc8884604051808381526020018281526020019250505060405180910390a361155681600c5461120090919063ffffffff16565b600c819055506115718160075461120090919063ffffffff16565b6007819055506115c8816000808a73ffffffffffffffffffffffffffffffffffffffff1673ffffffffffffffffffffffffffffffffffffffff1681526020019081526020016000205461120090919063ffffffff16565b6000808973ffffffffffffffffffffffffffffffffffffffff1673ffffffffffffffffffffffffffffffffffffffff16815260200190815260200160002081905550858110156116bf57600061162782886116ce90919063ffffffff16565b905061163588308a84611a36565b508773ffffffffffffffffffffffffffffffffffffffff16600260009054906101000a900473ffffffffffffffffffffffffffffffffffffffff1673ffffffffffffffffffffffffffffffffffffffff167fec1e5ed733e00f1a00915d56caef57b4f52312dde4f9b3165f213319a0da156b836040518082815260200191505060405180910390a3505b60019450505b50505092915050565b600082821115611746576040517f08c379a000000000000000000000000000000000000000000000000000000000815260040180806020018281038252601e8152602001807f536166654d6174683a207375627472616374696f6e206f766572666c6f77000081525060200191505060405180910390fd5b600082840390508091505092915050565b60008083141561176a57600090506117d7565b600082840290508284828161177b57fe5b04146117d2576040517f08c379a0000000000000000000000000000000000000000000000000000000008152600401808060200182810382526021815260200180611d7c6021913960400191505060405180910390fd5b809150505b92915050565b6000808211611854576040517f08c379a000000000000000000000000000000000000000000000000000000000815260040180806020018281038252601a8152602001807f536166654d6174683a206469766973696f6e206279207a65726f00000000000081525060200191505060405180910390fd5b600082848161185f57fe5b0490508091505092915050565b60008160008110156118e6576040517f08c379a000000000000000000000000000000000000000000000000000000000815260040180806020018281038252601a8152602001807f46657374616b696e673a206e6567617469766520616d6f756e7400000000000081525060200191505060405180910390fd5b600260009054906101000a900473ffffffffffffffffffffffffffffffffffffffff16600d60006101000a81548173ffffffffffffffffffffffffffffffffffffffff021916908373ffffffffffffffffffffffffffffffffffffffff160217905550600d60009054906101000a900473ffffffffffffffffffffffffffffffffffffffff1673ffffffffffffffffffffffffffffffffffffffff1663a9059cbb85856040518363ffffffff1660e01b8152600401808373ffffffffffffffffffffffffffffffffffffffff1673ffffffffffffffffffffffffffffffffffffffff16815260200182815260200192505050602060405180830381600087803b1580156119f257600080fd5b505af1158015611a06573d6000803e3d6000fd5b505050506040513d6020811015611a1c57600080fd5b810190808051906020019092919050505091505092915050565b6000600260009054906101000a900473ffffffffffffffffffffffffffffffffffffffff16600d60006101000a81548173ffffffffffffffffffffffffffffffffffffffff021916908373ffffffffffffffffffffffffffffffffffffffff1602179055506000600d60009054906101000a900473ffffffffffffffffffffffffffffffffffffffff1673ffffffffffffffffffffffffffffffffffffffff1663dd62ed3e87876040518363ffffffff1660e01b8152600401808373ffffffffffffffffffffffffffffffffffffffff1673ffffffffffffffffffffffffffffffffffffffff1681526020018273ffffffffffffffffffffffffffffffffffffffff1673ffffffffffffffffffffffffffffffffffffffff1681526020019250505060206040518083038186803b158015611b7057600080fd5b505afa158015611b84573d6000803e3d6000fd5b505050506040513d6020811015611b9a57600080fd5b8101908080519060200190929190505050905080831115611c06576040517f08c379a0000000000000000000000000000000000000000000000000000000008152600401808060200182810382526021815260200180611d2a6021913960400191505060405180910390fd5b600d60009054906101000a900473ffffffffffffffffffffffffffffffffffffffff1673ffffffffffffffffffffffffffffffffffffffff166323b872dd8786866040518463ffffffff1660e01b8152600401808473ffffffffffffffffffffffffffffffffffffffff1673ffffffffffffffffffffffffffffffffffffffff1681526020018373ffffffffffffffffffffffffffffffffffffffff1673ffffffffffffffffffffffffffffffffffffffff1681526020018281526020019350505050602060405180830381600087803b158015611ce357600080fd5b505af1158015611cf7573d6000803e3d6000fd5b505050506040513d6020811015611d0d57600080fd5b810190808051906020019092919050505091505094935050505056fe4d616b65207375726520746f2061646420656e6f75676820616c6c6f77616e636546657374616b696e673a20776974686472617761626c6520616d6f756e742063616e6e6f74206265206e65676174697665536166654d6174683a206d756c7469706c69636174696f6e206f766572666c6f7746657374616b696e673a206261642074696d696e6720666f72207468652072657175657374203146657374616b696e673a20776974686472617761626c6520616d6f756e74206d757374206265206c657373207468616e206f7220657175616c20746f207468652072657761726420616d6f756e7446657374616b696e673a20726577617264206d75737420626520706f73697469766546657374616b696e673a206261642074696d696e6720666f722074686520726571756573742032a165627a7a7230582097c8e6b36f492b084227c5dd988ecb6e2b07ee37ab4aa26dde793eec266bed4e002946657374616b696e673a207374616b696e6720656e64206d757374206265206166746572207374616b696e672073746172747346657374616b696e673a207769746864726177456e6473206d7573742062652061667465722077697468647261772073746172747346657374616b696e673a207374616b696e67436170206d75737420626520706f73697469766546657374616b696e673a207769746864726177537461727473206d757374206265206166746572207374616b696e6720656e647346657374616b696e673a207a65726f207374616b696e672073746172742074696d65",
  "source": "pragma solidity ^0.5.8;\nimport \"./Festaking.sol\";\n\ncontract FestakingTest is Festaking {\n    uint public GAP = 60000;\n    uint public SEC = 1000;\n\n    constructor (string memory name_,\n        address tokenAddress_,\n        uint256 stakingCap_)\n    Festaking(name_, tokenAddress_, now, now + GAP, now + GAP, now + GAP * 2, stakingCap_)\n    public { }\n\n    function setStakingPeriod() public {\n        setStakingStart(now - SEC);\n    }\n\n    function setEarlyWithdrawalPeriod(uint offset) public {\n        setStakingStart(now - GAP - offset);\n    }\n\n    function setAfterWithdrawal() public {\n        setStakingStart(now - GAP * 2 - SEC);\n    }\n\n    function setStakingStart(uint time) private {\n        stakingStarts = time;\n        stakingEnds = time + GAP;\n        withdrawStarts = time + GAP;\n        withdrawEnds = time + GAP * 2;\n    }\n}\n",
  "sourcePath": "/Users/wycliffkasirye/Desktop/projects/frm-ethereum-contracts/contracts/FestakingTest.sol",
  "compiler": {
    "name": "solc",
    "version": "0.5.8+commit.23d335f2.Emscripten.clang"
  },
  "schemaVersion": "3.0.11",
  "updatedAt": "2019-09-09T20:49:08.367Z",
  "devdoc": {
    "methods": {}
  },
  "userdoc": {
    "methods": {
      "stake(uint256)": {
        "notice": "Requirements: - `amount` Amount to be staked"
      }
    }
  }
}