{
  "contractName": "Festaking",
  "abi": [
    {
      "constant": true,
      "inputs": [],
      "name": "name",
      "outputs": [
        {
          "name": "",
          "type": "string"
        }
      ],
      "payable": false,
      "stateMutability": "view",
      "type": "function"
    },
    {
      "constant": true,
      "inputs": [],
      "name": "ERC20Interface",
      "outputs": [
        {
          "name": "",
          "type": "address"
        }
      ],
      "payable": false,
      "stateMutability": "view",
      "type": "function"
    },
    {
      "constant": true,
      "inputs": [],
      "name": "withdrawStarts",
      "outputs": [
        {
          "name": "",
          "type": "uint256"
        }
      ],
      "payable": false,
      "stateMutability": "view",
      "type": "function"
    },
    {
      "constant": true,
      "inputs": [],
      "name": "earlyWithdrawReward",
      "outputs": [
        {
          "name": "",
          "type": "uint256"
        }
      ],
      "payable": false,
      "stateMutability": "view",
      "type": "function"
    },
    {
      "constant": true,
      "inputs": [],
      "name": "stakingCap",
      "outputs": [
        {
          "name": "",
          "type": "uint256"
        }
      ],
      "payable": false,
      "stateMutability": "view",
      "type": "function"
    },
    {
      "constant": true,
      "inputs": [],
      "name": "stakedBalance",
      "outputs": [
        {
          "name": "",
          "type": "uint256"
        }
      ],
      "payable": false,
      "stateMutability": "view",
      "type": "function"
    },
    {
      "constant": true,
      "inputs": [],
      "name": "stakingStarts",
      "outputs": [
        {
          "name": "",
          "type": "uint256"
        }
      ],
      "payable": false,
      "stateMutability": "view",
      "type": "function"
    },
    {
      "constant": true,
      "inputs": [],
      "name": "totalReward",
      "outputs": [
        {
          "name": "",
          "type": "uint256"
        }
      ],
      "payable": false,
      "stateMutability": "view",
      "type": "function"
    },
    {
      "constant": true,
      "inputs": [],
      "name": "tokenAddress",
      "outputs": [
        {
          "name": "",
          "type": "address"
        }
      ],
      "payable": false,
      "stateMutability": "view",
      "type": "function"
    },
    {
      "constant": true,
      "inputs": [],
      "name": "rewardBalance",
      "outputs": [
        {
          "name": "",
          "type": "uint256"
        }
      ],
      "payable": false,
      "stateMutability": "view",
      "type": "function"
    },
    {
      "constant": true,
      "inputs": [],
      "name": "stakingEnds",
      "outputs": [
        {
          "name": "",
          "type": "uint256"
        }
      ],
      "payable": false,
      "stateMutability": "view",
      "type": "function"
    },
    {
      "constant": true,
      "inputs": [],
      "name": "stakedTotal",
      "outputs": [
        {
          "name": "",
          "type": "uint256"
        }
      ],
      "payable": false,
      "stateMutability": "view",
      "type": "function"
    },
    {
      "constant": true,
      "inputs": [],
      "name": "withdrawEnds",
      "outputs": [
        {
          "name": "",
          "type": "uint256"
        }
      ],
      "payable": false,
      "stateMutability": "view",
      "type": "function"
    },
    {
      "inputs": [
        {
          "name": "name_",
          "type": "string"
        },
        {
          "name": "tokenAddress_",
          "type": "address"
        },
        {
          "name": "stakingStarts_",
          "type": "uint256"
        },
        {
          "name": "stakingEnds_",
          "type": "uint256"
        },
        {
          "name": "withdrawStarts_",
          "type": "uint256"
        },
        {
          "name": "withdrawEnds_",
          "type": "uint256"
        },
        {
          "name": "stakingCap_",
          "type": "uint256"
        }
      ],
      "payable": false,
      "stateMutability": "nonpayable",
      "type": "constructor"
    },
    {
      "anonymous": false,
      "inputs": [
        {
          "indexed": true,
          "name": "token",
          "type": "address"
        },
        {
          "indexed": true,
          "name": "staker_",
          "type": "address"
        },
        {
          "indexed": false,
          "name": "requestedAmount_",
          "type": "uint256"
        },
        {
          "indexed": false,
          "name": "stakedAmount_",
          "type": "uint256"
        }
      ],
      "name": "Staked",
      "type": "event"
    },
    {
      "anonymous": false,
      "inputs": [
        {
          "indexed": true,
          "name": "token",
          "type": "address"
        },
        {
          "indexed": true,
          "name": "staker_",
          "type": "address"
        },
        {
          "indexed": false,
          "name": "amount_",
          "type": "uint256"
        },
        {
          "indexed": false,
          "name": "reward_",
          "type": "uint256"
        }
      ],
      "name": "PaidOut",
      "type": "event"
    },
    {
      "anonymous": false,
      "inputs": [
        {
          "indexed": true,
          "name": "token",
          "type": "address"
        },
        {
          "indexed": true,
          "name": "staker_",
          "type": "address"
        },
        {
          "indexed": false,
          "name": "amount_",
          "type": "uint256"
        }
      ],
      "name": "Refunded",
      "type": "event"
    },
    {
      "constant": false,
      "inputs": [
        {
          "name": "token",
          "type": "address"
        }
      ],
      "name": "registerTokenForTest",
      "outputs": [
        {
          "name": "",
          "type": "bool"
        }
      ],
      "payable": false,
      "stateMutability": "nonpayable",
      "type": "function"
    },
    {
      "constant": false,
      "inputs": [
        {
          "name": "rewardAmount",
          "type": "uint256"
        },
        {
          "name": "withdrawableAmount",
          "type": "uint256"
        }
      ],
      "name": "addReward",
      "outputs": [
        {
          "name": "",
          "type": "bool"
        }
      ],
      "payable": false,
      "stateMutability": "nonpayable",
      "type": "function"
    },
    {
      "constant": true,
      "inputs": [
        {
          "name": "account",
          "type": "address"
        }
      ],
      "name": "stakeOf",
      "outputs": [
        {
          "name": "",
          "type": "uint256"
        }
      ],
      "payable": false,
      "stateMutability": "view",
      "type": "function"
    },
    {
      "constant": false,
      "inputs": [
        {
          "name": "amount",
          "type": "uint256"
        }
      ],
      "name": "stake",
      "outputs": [
        {
          "name": "",
          "type": "bool"
        }
      ],
      "payable": false,
      "stateMutability": "nonpayable",
      "type": "function"
    },
    {
      "constant": false,
      "inputs": [
        {
          "name": "amount",
          "type": "uint256"
        }
      ],
      "name": "withdraw",
      "outputs": [
        {
          "name": "",
          "type": "bool"
        }
      ],
      "payable": false,
      "stateMutability": "nonpayable",
      "type": "function"
    }
  ],
  "bytecode": "0x60806040523480156200001157600080fd5b50604051620022b6380380620022b6833981018060405260e08110156200003757600080fd5b8101908080516401000000008111156200005057600080fd5b828101905060208101848111156200006757600080fd5b81518560018202830111640100000000821117156200008557600080fd5b50509291906020018051906020019092919080519060200190929190805190602001909291908051906020019092919080519060200190929190805190602001909291905050508660019080519060200190620000e4929190620003dc565b50600073ffffffffffffffffffffffffffffffffffffffff168673ffffffffffffffffffffffffffffffffffffffff16141562000189576040517f08c379a00000000000000000000000000000000000000000000000000000000081526004018080602001828103825260148152602001807f46657374616b696e673a2030206164647265737300000000000000000000000081525060200191505060405180910390fd5b85600260006101000a81548173ffffffffffffffffffffffffffffffffffffffff021916908373ffffffffffffffffffffffffffffffffffffffff1602179055506000851162000225576040517f08c379a0000000000000000000000000000000000000000000000000000000008152600401808060200182810382526022815260200180620022946022913960400191505060405180910390fd5b428510156200023b574260038190555062000243565b846003819055505b60035484116200029f576040517f08c379a0000000000000000000000000000000000000000000000000000000008152600401808060200182810382526033815260200180620021d26033913960400191505060405180910390fd5b8360048190555060045483101562000303576040517f08c379a0000000000000000000000000000000000000000000000000000000008152600401808060200182810382526034815260200180620022606034913960400191505060405180910390fd5b82600581905550600554821162000366576040517f08c379a0000000000000000000000000000000000000000000000000000000008152600401808060200182810382526035815260200180620022056035913960400191505060405180910390fd5b8160068190555060008111620003c8576040517f08c379a00000000000000000000000000000000000000000000000000000000081526004018080602001828103825260268152602001806200223a6026913960400191505060405180910390fd5b80600881905550505050505050506200048b565b828054600181600116156101000203166002900490600052602060002090601f016020900481019282601f106200041f57805160ff191683800117855562000450565b8280016001018555821562000450579182015b828111156200044f57825182559160200191906001019062000432565b5b5090506200045f919062000463565b5090565b6200048891905b80821115620004845760008160009055506001016200046a565b5090565b90565b611d37806200049b6000396000f3fe608060405234801561001057600080fd5b50600436106101165760003560e01c8063750142e6116100a2578063a694fc3a11610071578063a694fc3a14610430578063aa5c3ab414610476578063b410e2a114610494578063d66692a7146104b2578063eacebf61146104d057610116565b8063750142e61461031c57806375c93bb91461033a5780637617aeb01461038a5780639d76ea58146103e657610116565b80633f7fd60a116100e95780633f7fd60a1461024c578063426233601461026a57806344c370d3146102c25780635b9f0016146102e05780636d68c7d4146102fe57610116565b806306fdde031461011b5780631bbc4b831461019e57806321b13cdf146101e85780632e1a7d4d14610206575b600080fd5b6101236104ee565b6040518080602001828103825283818151815260200191508051906020019080838360005b83811015610163578082015181840152602081019050610148565b50505050905090810190601f1680156101905780820380516001836020036101000a031916815260200191505b509250505060405180910390f35b6101a661058c565b604051808273ffffffffffffffffffffffffffffffffffffffff1673ffffffffffffffffffffffffffffffffffffffff16815260200191505060405180910390f35b6101f06105b2565b6040518082815260200191505060405180910390f35b6102326004803603602081101561021c57600080fd5b81019080803590602001909291905050506105b8565b604051808215151515815260200191505060405180910390f35b61025461081d565b6040518082815260200191505060405180910390f35b6102ac6004803603602081101561028057600080fd5b81019080803573ffffffffffffffffffffffffffffffffffffffff169060200190929190505050610823565b6040518082815260200191505060405180910390f35b6102ca61086b565b6040518082815260200191505060405180910390f35b6102e8610871565b6040518082815260200191505060405180910390f35b610306610877565b6040518082815260200191505060405180910390f35b61032461087d565b6040518082815260200191505060405180910390f35b6103706004803603604081101561035057600080fd5b810190808035906020019092919080359060200190929190505050610883565b604051808215151515815260200191505060405180910390f35b6103cc600480360360208110156103a057600080fd5b81019080803573ffffffffffffffffffffffffffffffffffffffff169060200190929190505050610a55565b604051808215151515815260200191505060405180910390f35b6103ee610aa1565b604051808273ffffffffffffffffffffffffffffffffffffffff1673ffffffffffffffffffffffffffffffffffffffff16815260200191505060405180910390f35b61045c6004803603602081101561044657600080fd5b8101908080359060200190929190505050610ac7565b604051808215151515815260200191505060405180910390f35b61047e610bfe565b6040518082815260200191505060405180910390f35b61049c610c04565b6040518082815260200191505060405180910390f35b6104ba610c0a565b6040518082815260200191505060405180910390f35b6104d8610c10565b6040518082815260200191505060405180910390f35b60018054600181600116156101000203166002900480601f0160208091040260200160405190810160405280929190818152602001828054600181600116156101000203166002900480156105845780601f1061055957610100808354040283529160200191610584565b820191906000526020600020905b81548152906001019060200180831161056757829003601f168201915b505050505081565b600d60009054906101000a900473ffffffffffffffffffffffffffffffffffffffff1681565b60055481565b600060055480421015610616576040517f08c379a0000000000000000000000000000000000000000000000000000000008152600401808060200182810382526025815260200180611c566025913960400191505060405180910390fd5b82600081101561068e576040517f08c379a000000000000000000000000000000000000000000000000000000000815260040180806020018281038252601a8152602001807f46657374616b696e673a206e6567617469766520616d6f756e7400000000000081525060200191505060405180910390fd5b33600073ffffffffffffffffffffffffffffffffffffffff168173ffffffffffffffffffffffffffffffffffffffff161415610732576040517f08c379a00000000000000000000000000000000000000000000000000000000081526004018080602001828103825260178152602001807f46657374616b696e673a207a65726f206164647265737300000000000000000081525060200191505060405180910390fd5b60003390506000808273ffffffffffffffffffffffffffffffffffffffff1673ffffffffffffffffffffffffffffffffffffffff168152602001908152602001600020548611156107eb576040517f08c379a000000000000000000000000000000000000000000000000000000000815260040180806020018281038252601d8152602001807f46657374616b696e673a206e6f7420656e6f7567682062616c616e636500000081525060200191505060405180910390fd5b600654421015610807576107ff8187610c16565b945050610815565b6108118187610ec9565b9450505b505050919050565b600a5481565b60008060008373ffffffffffffffffffffffffffffffffffffffff1673ffffffffffffffffffffffffffffffffffffffff168152602001908152602001600020549050919050565b60085481565b600c5481565b60035481565b60095481565b60006005548042106108e0576040517f08c379a0000000000000000000000000000000000000000000000000000000008152600401808060200182810382526025815260200180611c566025913960400191505060405180910390fd5b60008411610939576040517f08c379a0000000000000000000000000000000000000000000000000000000008152600401808060200182810382526022815260200180611cea6022913960400191505060405180910390fd5b6000831015610993576040517f08c379a0000000000000000000000000000000000000000000000000000000008152600401808060200182810382526031815260200180611c256031913960400191505060405180910390fd5b838311156109ec576040517f08c379a000000000000000000000000000000000000000000000000000000000815260040180806020018281038252604e815260200180611c9c604e913960600191505060405180910390fd5b60003390506109fb81866110f2565b610a09576000925050610a4e565b610a1e8560095461110890919063ffffffff16565b600981905550600954600b81905550610a4284600a5461110890919063ffffffff16565b600a8190555060019250505b5092915050565b600081600260006101000a81548173ffffffffffffffffffffffffffffffffffffffff021916908373ffffffffffffffffffffffffffffffffffffffff16021790555060019050919050565b600260009054906101000a900473ffffffffffffffffffffffffffffffffffffffff1681565b6000816000811015610b41576040517f08c379a000000000000000000000000000000000000000000000000000000000815260040180806020018281038252601a8152602001807f46657374616b696e673a206e6567617469766520616d6f756e7400000000000081525060200191505060405180910390fd5b33600073ffffffffffffffffffffffffffffffffffffffff168173ffffffffffffffffffffffffffffffffffffffff161415610be5576040517f08c379a00000000000000000000000000000000000000000000000000000000081526004018080602001828103825260178152602001807f46657374616b696e673a207a65726f206164647265737300000000000000000081525060200191505060405180910390fd5b6000339050610bf48186611190565b9350505050919050565b600b5481565b60045481565b60075481565b60065481565b600082600073ffffffffffffffffffffffffffffffffffffffff168173ffffffffffffffffffffffffffffffffffffffff161415610cbc576040517f08c379a00000000000000000000000000000000000000000000000000000000081526004018080602001828103825260178152602001807f46657374616b696e673a207a65726f206164647265737300000000000000000081525060200191505060405180910390fd5b6000610ce9600754610cdb6004546006546115a890919063ffffffff16565b61163190919063ffffffff16565b90506000610d3a82610d2c87610d1e600a54610d10600454426115a890919063ffffffff16565b61163190919063ffffffff16565b61163190919063ffffffff16565b6116b790919063ffffffff16565b90506000610d51828761110890919063ffffffff16565b9050610d6882600b546115a890919063ffffffff16565b600b81905550610d8386600c546115a890919063ffffffff16565b600c81905550610dda866000808a73ffffffffffffffffffffffffffffffffffffffff1673ffffffffffffffffffffffffffffffffffffffff168152602001908152602001600020546115a890919063ffffffff16565b6000808973ffffffffffffffffffffffffffffffffffffffff1673ffffffffffffffffffffffffffffffffffffffff16815260200190815260200160002081905550610e268782611746565b15610ebb578673ffffffffffffffffffffffffffffffffffffffff16600260009054906101000a900473ffffffffffffffffffffffffffffffffffffffff1673ffffffffffffffffffffffffffffffffffffffff167f85ab59351da11b79336de7647172267c33bf533ee87d9d292441c2672177159b8885604051808381526020018281526020019250505060405180910390a35b600194505050505092915050565b600082600073ffffffffffffffffffffffffffffffffffffffff168173ffffffffffffffffffffffffffffffffffffffff161415610f6f576040517f08c379a00000000000000000000000000000000000000000000000000000000081526004018080602001828103825260178152602001807f46657374616b696e673a207a65726f206164647265737300000000000000000081525060200191505060405180910390fd5b6000610f9a600c54610f8c86600b5461163190919063ffffffff16565b6116b790919063ffffffff16565b90506000610fb1828661110890919063ffffffff16565b9050611004856000808973ffffffffffffffffffffffffffffffffffffffff1673ffffffffffffffffffffffffffffffffffffffff168152602001908152602001600020546115a890919063ffffffff16565b6000808873ffffffffffffffffffffffffffffffffffffffff1673ffffffffffffffffffffffffffffffffffffffff168152602001908152602001600020819055506110508682611746565b156110e5578573ffffffffffffffffffffffffffffffffffffffff16600260009054906101000a900473ffffffffffffffffffffffffffffffffffffffff1673ffffffffffffffffffffffffffffffffffffffff167f85ab59351da11b79336de7647172267c33bf533ee87d9d292441c2672177159b8785604051808381526020018281526020019250505060405180910390a35b6001935050505092915050565b600061110083303085611910565b905092915050565b600080828401905083811015611186576040517f08c379a000000000000000000000000000000000000000000000000000000000815260040180806020018281038252601b8152602001807f536166654d6174683a206164646974696f6e206f766572666c6f77000000000081525060200191505060405180910390fd5b8091505092915050565b6000600354804210156111ee576040517f08c379a0000000000000000000000000000000000000000000000000000000008152600401808060200182810382526025815260200180611c566025913960400191505060405180910390fd5b600454804210611249576040517f08c379a0000000000000000000000000000000000000000000000000000000008152600401808060200182810382526025815260200180611c566025913960400191505060405180910390fd5b8360008110156112c1576040517f08c379a000000000000000000000000000000000000000000000000000000000815260040180806020018281038252601a8152602001807f46657374616b696e673a206e6567617469766520616d6f756e7400000000000081525060200191505060405180910390fd5b60008590506112dd600c546008546115a890919063ffffffff16565b8111156112fe576112fb600c546008546115a890919063ffffffff16565b90505b60008111611374576040517f08c379a00000000000000000000000000000000000000000000000000000000081526004018080602001828103825260158152602001807f5374616b696e67206361702069732066696c6c6564000000000000000000000081525060200191505060405180910390fd5b61137e87826110f2565b61138c57600094505061159f565b8673ffffffffffffffffffffffffffffffffffffffff16600260009054906101000a900473ffffffffffffffffffffffffffffffffffffffff1673ffffffffffffffffffffffffffffffffffffffff167f6c86f3fd5118b3aa8bb4f389a617046de0a3d3d477de1a1673d227f802f616dc8884604051808381526020018281526020019250505060405180910390a361143081600c5461110890919063ffffffff16565b600c8190555061144b8160075461110890919063ffffffff16565b6007819055506114a2816000808a73ffffffffffffffffffffffffffffffffffffffff1673ffffffffffffffffffffffffffffffffffffffff1681526020019081526020016000205461110890919063ffffffff16565b6000808973ffffffffffffffffffffffffffffffffffffffff1673ffffffffffffffffffffffffffffffffffffffff168152602001908152602001600020819055508581101561159957600061150182886115a890919063ffffffff16565b905061150f88308a84611910565b508773ffffffffffffffffffffffffffffffffffffffff16600260009054906101000a900473ffffffffffffffffffffffffffffffffffffffff1673ffffffffffffffffffffffffffffffffffffffff167fec1e5ed733e00f1a00915d56caef57b4f52312dde4f9b3165f213319a0da156b836040518082815260200191505060405180910390a3505b60019450505b50505092915050565b600082821115611620576040517f08c379a000000000000000000000000000000000000000000000000000000000815260040180806020018281038252601e8152602001807f536166654d6174683a207375627472616374696f6e206f766572666c6f77000081525060200191505060405180910390fd5b600082840390508091505092915050565b60008083141561164457600090506116b1565b600082840290508284828161165557fe5b04146116ac576040517f08c379a0000000000000000000000000000000000000000000000000000000008152600401808060200182810382526021815260200180611c7b6021913960400191505060405180910390fd5b809150505b92915050565b600080821161172e576040517f08c379a000000000000000000000000000000000000000000000000000000000815260040180806020018281038252601a8152602001807f536166654d6174683a206469766973696f6e206279207a65726f00000000000081525060200191505060405180910390fd5b600082848161173957fe5b0490508091505092915050565b60008160008110156117c0576040517f08c379a000000000000000000000000000000000000000000000000000000000815260040180806020018281038252601a8152602001807f46657374616b696e673a206e6567617469766520616d6f756e7400000000000081525060200191505060405180910390fd5b600260009054906101000a900473ffffffffffffffffffffffffffffffffffffffff16600d60006101000a81548173ffffffffffffffffffffffffffffffffffffffff021916908373ffffffffffffffffffffffffffffffffffffffff160217905550600d60009054906101000a900473ffffffffffffffffffffffffffffffffffffffff1673ffffffffffffffffffffffffffffffffffffffff1663a9059cbb85856040518363ffffffff1660e01b8152600401808373ffffffffffffffffffffffffffffffffffffffff1673ffffffffffffffffffffffffffffffffffffffff16815260200182815260200192505050602060405180830381600087803b1580156118cc57600080fd5b505af11580156118e0573d6000803e3d6000fd5b505050506040513d60208110156118f657600080fd5b810190808051906020019092919050505091505092915050565b6000600260009054906101000a900473ffffffffffffffffffffffffffffffffffffffff16600d60006101000a81548173ffffffffffffffffffffffffffffffffffffffff021916908373ffffffffffffffffffffffffffffffffffffffff1602179055506000600d60009054906101000a900473ffffffffffffffffffffffffffffffffffffffff1673ffffffffffffffffffffffffffffffffffffffff1663dd62ed3e87876040518363ffffffff1660e01b8152600401808373ffffffffffffffffffffffffffffffffffffffff1673ffffffffffffffffffffffffffffffffffffffff1681526020018273ffffffffffffffffffffffffffffffffffffffff1673ffffffffffffffffffffffffffffffffffffffff1681526020019250505060206040518083038186803b158015611a4a57600080fd5b505afa158015611a5e573d6000803e3d6000fd5b505050506040513d6020811015611a7457600080fd5b8101908080519060200190929190505050905080831115611ae0576040517f08c379a0000000000000000000000000000000000000000000000000000000008152600401808060200182810382526021815260200180611c046021913960400191505060405180910390fd5b600d60009054906101000a900473ffffffffffffffffffffffffffffffffffffffff1673ffffffffffffffffffffffffffffffffffffffff166323b872dd8786866040518463ffffffff1660e01b8152600401808473ffffffffffffffffffffffffffffffffffffffff1673ffffffffffffffffffffffffffffffffffffffff1681526020018373ffffffffffffffffffffffffffffffffffffffff1673ffffffffffffffffffffffffffffffffffffffff1681526020018281526020019350505050602060405180830381600087803b158015611bbd57600080fd5b505af1158015611bd1573d6000803e3d6000fd5b505050506040513d6020811015611be757600080fd5b810190808051906020019092919050505091505094935050505056fe4d616b65207375726520746f2061646420656e6f75676820616c6c6f77616e636546657374616b696e673a20776974686472617761626c6520616d6f756e742063616e6e6f74206265206e6567617469766546657374616b696e673a206261642074696d696e6720666f72207468652072657175657374536166654d6174683a206d756c7469706c69636174696f6e206f766572666c6f7746657374616b696e673a20776974686472617761626c6520616d6f756e74206d757374206265206c657373207468616e206f7220657175616c20746f207468652072657761726420616d6f756e7446657374616b696e673a20726577617264206d75737420626520706f736974697665a165627a7a723058201808cfa79d90bf292d7ddd2e7545d99687e19cef1976015f2501c56ec7fb338b002946657374616b696e673a207374616b696e6720656e64206d757374206265206166746572207374616b696e672073746172747346657374616b696e673a207769746864726177456e6473206d7573742062652061667465722077697468647261772073746172747346657374616b696e673a207374616b696e67436170206d75737420626520706f73697469766546657374616b696e673a207769746864726177537461727473206d757374206265206166746572207374616b696e6720656e647346657374616b696e673a207a65726f207374616b696e672073746172742074696d65",
  "source": "pragma solidity ^0.5.8;\n\nimport \"openzeppelin-solidity/contracts/token/ERC20/ERC20.sol\";\nimport \"openzeppelin-solidity/contracts/math/SafeMath.sol\";\n\ncontract Festaking {\n    using SafeMath for uint256;\n\n    mapping (address => uint256) private _stakes;\n\n    string public name;\n    address  public tokenAddress;\n    uint public stakingStarts;\n    uint public stakingEnds;\n    uint public withdrawStarts;\n    uint public withdrawEnds;\n    uint256 public stakedTotal;\n    uint256 public stakingCap;\n    uint256 public totalReward;\n    uint256 public earlyWithdrawReward;\n    uint256 public rewardBalance;\n    uint256 public stakedBalance;\n\n    ERC20 public ERC20Interface;\n    event Staked(address indexed token, address indexed staker_, uint256 requestedAmount_, uint256 stakedAmount_);\n    event PaidOut(address indexed token, address indexed staker_, uint256 amount_, uint256 reward_);\n    event Refunded(address indexed token, address indexed staker_, uint256 amount_);\n\n    /**\n     */\n    constructor (string memory name_,\n        address tokenAddress_,\n        uint stakingStarts_,\n        uint stakingEnds_,\n        uint withdrawStarts_,\n        uint withdrawEnds_,\n        uint256 stakingCap_) public {\n        name = name_;\n        require(tokenAddress_ != address(0), \"Festaking: 0 address\");\n        tokenAddress = tokenAddress_;\n\n        require(stakingStarts_ > 0, \"Festaking: zero staking start time\");\n        if (stakingStarts_ < now) {\n            stakingStarts = now;\n        } else {\n            stakingStarts = stakingStarts_;\n        }\n\n        require(stakingEnds_ > stakingStarts, \"Festaking: staking end must be after staking starts\");\n        stakingEnds = stakingEnds_;\n\n        require(withdrawStarts_ >= stakingEnds, \"Festaking: withdrawStarts must be after staking ends\");\n        withdrawStarts = withdrawStarts_;\n\n        require(withdrawEnds_ > withdrawStarts, \"Festaking: withdrawEnds must be after withdraw starts\");\n        withdrawEnds = withdrawEnds_;\n\n        require(stakingCap_ > 0, \"Festaking: stakingCap must be positive\");\n        stakingCap = stakingCap_;\n    }\n\n    function registerTokenForTest(address token) public returns (bool) {\n        tokenAddress = token;\n        return true;\n    }\n\n    function addReward(uint256 rewardAmount, uint256 withdrawableAmount)\n    public\n    _before(withdrawStarts)\n    returns (bool) {\n        require(rewardAmount > 0, \"Festaking: reward must be positive\");\n        require(withdrawableAmount >= 0, \"Festaking: withdrawable amount cannot be negative\");\n        require(withdrawableAmount <= rewardAmount, \"Festaking: withdrawable amount must be less than or equal to the reward amount\");\n        address from = msg.sender;\n        if (!_payMe(from, rewardAmount)) {\n            return false;\n        }\n\n        totalReward = totalReward.add(rewardAmount);\n        rewardBalance = totalReward;\n        earlyWithdrawReward = earlyWithdrawReward.add(withdrawableAmount);\n        return true;\n    }\n\n    function stakeOf(address account) public view returns (uint256) {\n        return _stakes[account];\n    }\n\n    /**\n    * Requirements:\n    * - `amount` Amount to be staked\n    */\n    function stake(uint256 amount)\n    public\n    _positive(amount)\n    _realAddress(msg.sender)\n    returns (bool) {\n        address from = msg.sender;\n        return _stake(from, amount);\n    }\n\n    function withdraw(uint256 amount)\n    public\n    _after(withdrawStarts)\n    _positive(amount)\n    _realAddress(msg.sender)\n    returns (bool) {\n        address from = msg.sender;\n        require(amount <= _stakes[from], \"Festaking: not enough balance\");\n        if (now < withdrawEnds) {\n            return _withdrawEarly(from, amount);\n        } else {\n            return _withdrawAfterClose(from, amount);\n        }\n    }\n\n    function _withdrawEarly(address from, uint256 amount)\n    private\n    _realAddress(from)\n    returns (bool) {\n        // This is the formula to calculate reward:\n        // r = (earlyWithdrawReward / stakedTotal) * (now - stakingEnds) / (withdrawEnds - stakingEnds)\n        // w = (1+r) * a\n        uint256 denom = (withdrawEnds.sub(stakingEnds)).mul(stakedTotal);\n        uint256 reward = (\n        ( (now.sub(stakingEnds)).mul(earlyWithdrawReward) ).mul(amount)\n        ).div(denom);\n        uint256 payOut = amount.add(reward);\n        rewardBalance = rewardBalance.sub(reward);\n        stakedBalance = stakedBalance.sub(amount);\n        _stakes[from] = _stakes[from].sub(amount);\n        if (_payDirect(from, payOut)) {\n            emit PaidOut(tokenAddress, from, amount, reward);\n        }\n        return true;\n    }\n\n    function _withdrawAfterClose(address from, uint256 amount)\n    private\n    _realAddress(from)\n    returns (bool) {\n        uint256 reward = (rewardBalance.mul(amount)).div(stakedBalance);\n        uint256 payOut = amount.add(reward);\n        _stakes[from] = _stakes[from].sub(amount);\n        if (_payDirect(from, payOut)) {\n            emit PaidOut(tokenAddress, from, amount, reward);\n        }\n        return true;\n    }\n\n    function _stake(address staker, uint256 amount)\n    private\n    _after(stakingStarts)\n    _before(stakingEnds)\n    _positive(amount)\n    returns (bool) {\n        // check the remaining amount to be staked\n        uint256 remaining = amount;\n        if (remaining > (stakingCap.sub(stakedBalance))) {\n            remaining = stakingCap.sub(stakedBalance);\n        }\n        require(remaining > 0, \"Staking cap is filled\");\n        if (!_payMe(staker, remaining)) {\n            return false;\n        }\n        emit Staked(tokenAddress, staker, amount, remaining);\n\n        // Transfer is completed\n        stakedBalance = stakedBalance.add(remaining);\n        stakedTotal = stakedTotal.add(remaining);\n        _stakes[staker] = _stakes[staker].add(remaining);\n\n        if (remaining < amount) {\n            // Return the unstaked amount to sender\n            uint256 refund = amount.sub(remaining);\n            _payTo(staker, address(this), staker, refund);\n            emit Refunded(tokenAddress, staker, refund);\n        }\n        return true;\n    }\n\n    function _payMe(address payer, uint256 amount)\n    private\n    returns (bool) {\n        return _payTo(payer, address(this), address(this), amount);\n    }\n\n    function _payTo(address allower, address payer, address receiver, uint256 amount)\n    private\n    returns (bool) {\n        // Request to transfer amount from payer to receiver. Allower is the original owner.\n        ERC20Interface = ERC20(tokenAddress);\n        uint256 ourAllowance = ERC20Interface.allowance(allower, payer);\n        require(amount <= ourAllowance, \"Make sure to add enough allowance\");\n        return ERC20Interface.transferFrom(allower, receiver, amount);\n    }\n\n    function _payDirect(address to, uint256 amount)\n    private\n    _positive(amount)\n    returns (bool) {\n        ERC20Interface = ERC20(tokenAddress);\n        return ERC20Interface.transfer(to, amount);\n    }\n\n    modifier _realAddress(address addr) {\n        require(addr != address(0), \"Festaking: zero address\");\n        _;\n    }\n\n    modifier _positive(uint256 amount) {\n        require(amount >= 0, \"Festaking: negative amount\");\n        _;\n    }\n\n    modifier _after(uint eventTime) {\n        require(now >= eventTime, \"Festaking: bad timing for the request\");\n        _;\n    }\n\n    modifier _before(uint eventTime) {\n        require(now < eventTime, \"Festaking: bad timing for the request\");\n        _;\n    }\n}\n",
  "sourcePath": "/Users/wycliffkasirye/Documents/frm-ethereum-contracts/contracts/Festaking.sol",
  "compiler": {
    "name": "solc",
    "version": "0.5.8+commit.23d335f2.Emscripten.clang"
  },
  "schemaVersion": "3.0.11",
  "updatedAt": "2019-08-15T12:09:52.176Z",
  "devdoc": {
    "methods": {}
  },
  "userdoc": {
    "methods": {
      "stake(uint256)": {
        "notice": "Requirements: - `amount` Amount to be staked"
      }
    }
  }
}